:020000040000fa
:080000000001040000000000f3
:020000040000fa
:100200006f802000809f2000000188000000000017
:100210004401020000000000000000000000000097
:10022000400620002040880062010200000000001b
:100230007e010200000000000428ed00faff3a00f1
:1002400090012000204088005401020000000000be
:100250007e010200000000000428ed00faff3a00d1
:10026000d000200020408800700102000000000043
:100270007e010200000000000428ed00faff3a00b1
:100280000c0104000000000002002a006216880031
:100290000000060081422000014088000028ed0097
:1002a000feff3a0000000600803e2000104088005b
:1002b0004a010200000000000228ed00fcff3a00a5
:1002c00000000600a00f2000104088004a01020034
:1002d000000000000228ed00fcff3a0000000600cc
:1002e000007d2000104088004a010200000000004c
:1002f0000228ed00fcff3a00000006000000240088
:08030000d0a2b60000000600c7
:020000040000fa
:0200000401f009
:04000000f7ff000006
:020000040000fa
:0200000401f009
:04000400ff7f00007a
:020000040000fa
:0200000401f009
:040008006eff000087
:020000040000fa
:0200000401f009
:04001400ffff0000ea
:020000040000fa
:10000800920100009201000092010000920100009c
:10001800920100009201000092010000920100008c
:10002800920100009201000092010000920100007c
:10003800920100009201000092010000920100006c
:10004800920100009201000092010000920100005c
:10005800920100009201000092010000920100004c
:10006800920100009201000092010000920100003c
:10007800920100009201000092010000920100002c
:10008800920100009201000092010000920100001c
:10009800920100009201000092010000920100000c
:1000a80092010000920100009201000092010000fc
:1000b80092010000920100009201000092010000ec
:1000c80092010000920100009201000092010000dc
:1000d80092010000920100009201000092010000cc
:1000e80092010000920100009201000092010000bc
:0800f8009201000092010000da
:020000040000fa
:10010800920100009201000092010000920100009b
:10011800920100009201000092010000920100008b
:10012800920100009201000092010000920100007b
:10013800920100009201000092010000920100006b
:10014800920100009201000092010000920100005b
:10015800920100009201000092010000920100004b
:10016800920100009201000092010000920100003b
:10017800920100009201000092010000920100002b
:10018800920100009201000092010000920100001b
:10019800920100009201000092010000920100000b
:1001a80092010000920100009201000092010000fb
:1001b80092010000920100009201000092010000eb
:1001c80092010000920100009201000092010000db
:1001d80092010000920100009201000092010000cb
:1001e80092010000920100009201000092010000bb
:0801f8009201000092010000d9
:020000040000fa
:1003080004080000020000000000000000080000cf
:0c031800040000000000000000000000d5
:020000040000fa
:040324000000fe00d7
:00000001FF
