:020000040000fa
:080000000001040000000000f3
:020000040000fa
:100200000f702100808f2100000188000000000095
:100210000e01020000000000ffff37000000eb00ad
:10022000000778000c000900002f78000007eb00a1
:0402300000000600c4
:020000040000fa
:0200000401f009
:04000000f7ff000006
:020000040000fa
:0200000401f009
:04000400ff7f00007a
:020000040000fa
:0200000401f009
:04000800eeff000007
:020000040000fa
:0200000401f009
:04001400ffff0000ea
:020000040000fa
:100008001c0100001c0100001c0100001c01000074
:100018001c0100001c0100001c0100001c01000064
:100028001c0100001c0100001c0100001c01000054
:100038001c0100001c0100001c0100001c01000044
:100048001c0100001c0100001c0100001c01000034
:100058001c0100001c0100001c0100001c01000024
:100068001c0100001c0100001c0100001c01000014
:100078001c0100001c0100001c0100001c01000004
:100088001c0100001c0100001c0100001c010000f4
:100098001c0100001c0100001c0100001c010000e4
:1000a8001c0100001c0100001c0100001c010000d4
:1000b8001c0100001c0100001c0100001c010000c4
:1000c8001c0100001c0100001c0100001c010000b4
:1000d8001c0100001c0100001c0100001c010000a4
:1000e8001c0100001c0100001c0100001c01000094
:0800f8001c0100001c010000c6
:020000040000fa
:100108001c0100001c0100001c0100001c01000073
:100118001c0100001c0100001c0100001c01000063
:100128001c0100001c0100001c0100001c01000053
:100138001c0100001c0100001c0100001c01000043
:100148001c0100001c0100001c0100001c01000033
:100158001c0100001c0100001c0100001c01000023
:100168001c0100001c0100001c0100001c01000013
:100178001c0100001c0100001c0100001c01000003
:100188001c0100001c0100001c0100001c010000f3
:100198001c0100001c0100001c0100001c010000e3
:1001a8001c0100001c0100001c0100001c010000d3
:1001b8001c0100001c0100001c0100001c010000c3
:1001c8001c0100001c0100001c0100001c010000b3
:1001d8001c0100001c0100001c0100001c010000a3
:1001e8001c0100001c0100001c0100001c01000093
:0801f8001c0100001c010000c5
:020000040000fa
:0402340000000000c6
:020000040000fa
:040238000000fe00c4
:00000001FF
